{
  "contractName": "NftMarket",
  "abi": [
    {
      "inputs": [],
      "stateMutability": "nonpayable",
      "type": "constructor"
    },
    {
      "anonymous": false,
      "inputs": [
        {
          "indexed": true,
          "internalType": "address",
          "name": "owner",
          "type": "address"
        },
        {
          "indexed": true,
          "internalType": "address",
          "name": "approved",
          "type": "address"
        },
        {
          "indexed": true,
          "internalType": "uint256",
          "name": "tokenId",
          "type": "uint256"
        }
      ],
      "name": "Approval",
      "type": "event"
    },
    {
      "anonymous": false,
      "inputs": [
        {
          "indexed": true,
          "internalType": "address",
          "name": "owner",
          "type": "address"
        },
        {
          "indexed": true,
          "internalType": "address",
          "name": "operator",
          "type": "address"
        },
        {
          "indexed": false,
          "internalType": "bool",
          "name": "approved",
          "type": "bool"
        }
      ],
      "name": "ApprovalForAll",
      "type": "event"
    },
    {
      "anonymous": false,
      "inputs": [
        {
          "indexed": false,
          "internalType": "uint256",
          "name": "tokenId",
          "type": "uint256"
        },
        {
          "indexed": false,
          "internalType": "uint256",
          "name": "price",
          "type": "uint256"
        },
        {
          "indexed": false,
          "internalType": "address",
          "name": "creator",
          "type": "address"
        },
        {
          "indexed": false,
          "internalType": "bool",
          "name": "isListed",
          "type": "bool"
        }
      ],
      "name": "NftItemCreate",
      "type": "event"
    },
    {
      "anonymous": false,
      "inputs": [
        {
          "indexed": true,
          "internalType": "address",
          "name": "previousOwner",
          "type": "address"
        },
        {
          "indexed": true,
          "internalType": "address",
          "name": "newOwner",
          "type": "address"
        }
      ],
      "name": "OwnershipTransferred",
      "type": "event"
    },
    {
      "anonymous": false,
      "inputs": [
        {
          "indexed": true,
          "internalType": "address",
          "name": "from",
          "type": "address"
        },
        {
          "indexed": true,
          "internalType": "address",
          "name": "to",
          "type": "address"
        },
        {
          "indexed": true,
          "internalType": "uint256",
          "name": "tokenId",
          "type": "uint256"
        }
      ],
      "name": "Transfer",
      "type": "event"
    },
    {
      "inputs": [
        {
          "internalType": "address",
          "name": "to",
          "type": "address"
        },
        {
          "internalType": "uint256",
          "name": "tokenId",
          "type": "uint256"
        }
      ],
      "name": "approve",
      "outputs": [],
      "stateMutability": "nonpayable",
      "type": "function"
    },
    {
      "inputs": [
        {
          "internalType": "address",
          "name": "owner",
          "type": "address"
        }
      ],
      "name": "balanceOf",
      "outputs": [
        {
          "internalType": "uint256",
          "name": "",
          "type": "uint256"
        }
      ],
      "stateMutability": "view",
      "type": "function",
      "constant": true
    },
    {
      "inputs": [
        {
          "internalType": "uint256",
          "name": "tokenId",
          "type": "uint256"
        }
      ],
      "name": "getApproved",
      "outputs": [
        {
          "internalType": "address",
          "name": "",
          "type": "address"
        }
      ],
      "stateMutability": "view",
      "type": "function",
      "constant": true
    },
    {
      "inputs": [
        {
          "internalType": "address",
          "name": "owner",
          "type": "address"
        },
        {
          "internalType": "address",
          "name": "operator",
          "type": "address"
        }
      ],
      "name": "isApprovedForAll",
      "outputs": [
        {
          "internalType": "bool",
          "name": "",
          "type": "bool"
        }
      ],
      "stateMutability": "view",
      "type": "function",
      "constant": true
    },
    {
      "inputs": [],
      "name": "listingPrice",
      "outputs": [
        {
          "internalType": "uint256",
          "name": "",
          "type": "uint256"
        }
      ],
      "stateMutability": "view",
      "type": "function",
      "constant": true
    },
    {
      "inputs": [],
      "name": "name",
      "outputs": [
        {
          "internalType": "string",
          "name": "",
          "type": "string"
        }
      ],
      "stateMutability": "view",
      "type": "function",
      "constant": true
    },
    {
      "inputs": [],
      "name": "owner",
      "outputs": [
        {
          "internalType": "address",
          "name": "",
          "type": "address"
        }
      ],
      "stateMutability": "view",
      "type": "function",
      "constant": true
    },
    {
      "inputs": [
        {
          "internalType": "uint256",
          "name": "tokenId",
          "type": "uint256"
        }
      ],
      "name": "ownerOf",
      "outputs": [
        {
          "internalType": "address",
          "name": "",
          "type": "address"
        }
      ],
      "stateMutability": "view",
      "type": "function",
      "constant": true
    },
    {
      "inputs": [],
      "name": "renounceOwnership",
      "outputs": [],
      "stateMutability": "nonpayable",
      "type": "function"
    },
    {
      "inputs": [
        {
          "internalType": "address",
          "name": "from",
          "type": "address"
        },
        {
          "internalType": "address",
          "name": "to",
          "type": "address"
        },
        {
          "internalType": "uint256",
          "name": "tokenId",
          "type": "uint256"
        }
      ],
      "name": "safeTransferFrom",
      "outputs": [],
      "stateMutability": "nonpayable",
      "type": "function"
    },
    {
      "inputs": [
        {
          "internalType": "address",
          "name": "from",
          "type": "address"
        },
        {
          "internalType": "address",
          "name": "to",
          "type": "address"
        },
        {
          "internalType": "uint256",
          "name": "tokenId",
          "type": "uint256"
        },
        {
          "internalType": "bytes",
          "name": "_data",
          "type": "bytes"
        }
      ],
      "name": "safeTransferFrom",
      "outputs": [],
      "stateMutability": "nonpayable",
      "type": "function"
    },
    {
      "inputs": [
        {
          "internalType": "address",
          "name": "operator",
          "type": "address"
        },
        {
          "internalType": "bool",
          "name": "approved",
          "type": "bool"
        }
      ],
      "name": "setApprovalForAll",
      "outputs": [],
      "stateMutability": "nonpayable",
      "type": "function"
    },
    {
      "inputs": [
        {
          "internalType": "bytes4",
          "name": "interfaceId",
          "type": "bytes4"
        }
      ],
      "name": "supportsInterface",
      "outputs": [
        {
          "internalType": "bool",
          "name": "",
          "type": "bool"
        }
      ],
      "stateMutability": "view",
      "type": "function",
      "constant": true
    },
    {
      "inputs": [],
      "name": "symbol",
      "outputs": [
        {
          "internalType": "string",
          "name": "",
          "type": "string"
        }
      ],
      "stateMutability": "view",
      "type": "function",
      "constant": true
    },
    {
      "inputs": [
        {
          "internalType": "uint256",
          "name": "tokenId",
          "type": "uint256"
        }
      ],
      "name": "tokenURI",
      "outputs": [
        {
          "internalType": "string",
          "name": "",
          "type": "string"
        }
      ],
      "stateMutability": "view",
      "type": "function",
      "constant": true
    },
    {
      "inputs": [
        {
          "internalType": "address",
          "name": "from",
          "type": "address"
        },
        {
          "internalType": "address",
          "name": "to",
          "type": "address"
        },
        {
          "internalType": "uint256",
          "name": "tokenId",
          "type": "uint256"
        }
      ],
      "name": "transferFrom",
      "outputs": [],
      "stateMutability": "nonpayable",
      "type": "function"
    },
    {
      "inputs": [
        {
          "internalType": "address",
          "name": "newOwner",
          "type": "address"
        }
      ],
      "name": "transferOwnership",
      "outputs": [],
      "stateMutability": "nonpayable",
      "type": "function"
    },
    {
      "inputs": [
        {
          "internalType": "uint256",
          "name": "newPrice",
          "type": "uint256"
        }
      ],
      "name": "setListingPrice",
      "outputs": [],
      "stateMutability": "nonpayable",
      "type": "function"
    },
    {
      "inputs": [
        {
          "internalType": "string",
          "name": "tokenURI",
          "type": "string"
        },
        {
          "internalType": "uint256",
          "name": "price",
          "type": "uint256"
        }
      ],
      "name": "mintToken",
      "outputs": [
        {
          "internalType": "uint256",
          "name": "",
          "type": "uint256"
        }
      ],
      "stateMutability": "payable",
      "type": "function",
      "payable": true
    },
    {
      "inputs": [
        {
          "internalType": "uint256",
          "name": "tokenId",
          "type": "uint256"
        }
      ],
      "name": "burnToken",
      "outputs": [],
      "stateMutability": "nonpayable",
      "type": "function"
    },
    {
      "inputs": [
        {
          "internalType": "uint256",
          "name": "tokenId",
          "type": "uint256"
        }
      ],
      "name": "buyNft",
      "outputs": [],
      "stateMutability": "payable",
      "type": "function",
      "payable": true
    },
    {
      "inputs": [
        {
          "internalType": "uint256",
          "name": "tokenId",
          "type": "uint256"
        },
        {
          "internalType": "uint256",
          "name": "newPrice",
          "type": "uint256"
        }
      ],
      "name": "placeNftOnSale",
      "outputs": [],
      "stateMutability": "payable",
      "type": "function",
      "payable": true
    },
    {
      "inputs": [],
      "name": "getAllNftsOnSale",
      "outputs": [
        {
          "components": [
            {
              "internalType": "uint256",
              "name": "tokenId",
              "type": "uint256"
            },
            {
              "internalType": "uint256",
              "name": "price",
              "type": "uint256"
            },
            {
              "internalType": "address",
              "name": "creator",
              "type": "address"
            },
            {
              "internalType": "bool",
              "name": "isListed",
              "type": "bool"
            }
          ],
          "internalType": "struct NftMarket.NftItem[]",
          "name": "",
          "type": "tuple[]"
        }
      ],
      "stateMutability": "view",
      "type": "function",
      "constant": true
    },
    {
      "inputs": [],
      "name": "getOwnedNfts",
      "outputs": [
        {
          "components": [
            {
              "internalType": "uint256",
              "name": "tokenId",
              "type": "uint256"
            },
            {
              "internalType": "uint256",
              "name": "price",
              "type": "uint256"
            },
            {
              "internalType": "address",
              "name": "creator",
              "type": "address"
            },
            {
              "internalType": "bool",
              "name": "isListed",
              "type": "bool"
            }
          ],
          "internalType": "struct NftMarket.NftItem[]",
          "name": "",
          "type": "tuple[]"
        }
      ],
      "stateMutability": "view",
      "type": "function",
      "constant": true
    },
    {
      "inputs": [
        {
          "internalType": "string",
          "name": "tokenURI",
          "type": "string"
        }
      ],
      "name": "tokenURIExists",
      "outputs": [
        {
          "internalType": "bool",
          "name": "",
          "type": "bool"
        }
      ],
      "stateMutability": "view",
      "type": "function",
      "constant": true
    },
    {
      "inputs": [
        {
          "internalType": "uint256",
          "name": "tokenId",
          "type": "uint256"
        }
      ],
      "name": "getNftItem",
      "outputs": [
        {
          "components": [
            {
              "internalType": "uint256",
              "name": "tokenId",
              "type": "uint256"
            },
            {
              "internalType": "uint256",
              "name": "price",
              "type": "uint256"
            },
            {
              "internalType": "address",
              "name": "creator",
              "type": "address"
            },
            {
              "internalType": "bool",
              "name": "isListed",
              "type": "bool"
            }
          ],
          "internalType": "struct NftMarket.NftItem",
          "name": "",
          "type": "tuple"
        }
      ],
      "stateMutability": "view",
      "type": "function",
      "constant": true
    },
    {
      "inputs": [],
      "name": "listedItemsCount",
      "outputs": [
        {
          "internalType": "uint256",
          "name": "",
          "type": "uint256"
        }
      ],
      "stateMutability": "view",
      "type": "function",
      "constant": true
    },
    {
      "inputs": [],
      "name": "totalSupply",
      "outputs": [
        {
          "internalType": "uint256",
          "name": "",
          "type": "uint256"
        }
      ],
      "stateMutability": "view",
      "type": "function",
      "constant": true
    },
    {
      "inputs": [
        {
          "internalType": "uint256",
          "name": "index",
          "type": "uint256"
        }
      ],
      "name": "tokenByIndex",
      "outputs": [
        {
          "internalType": "uint256",
          "name": "",
          "type": "uint256"
        }
      ],
      "stateMutability": "view",
      "type": "function",
      "constant": true
    },
    {
      "inputs": [
        {
          "internalType": "address",
          "name": "owner",
          "type": "address"
        },
        {
          "internalType": "uint256",
          "name": "index",
          "type": "uint256"
        }
      ],
      "name": "tokenOfOwnerByIndex",
      "outputs": [
        {
          "internalType": "uint256",
          "name": "",
          "type": "uint256"
        }
      ],
      "stateMutability": "view",
      "type": "function",
      "constant": true
    }
  ],
  "bytecode": "0x60806040526658d15e176280006008553480156200001c57600080fd5b506040518060400160405280600781526020017f436f6f6c4e4654000000000000000000000000000000000000000000000000008152506040518060400160405280600481526020017f434e46540000000000000000000000000000000000000000000000000000000081525081600090816200009a91906200041d565b508060019081620000ac91906200041d565b505050620000cf620000c3620000d560201b60201c565b620000dd60201b60201c565b62000504565b600033905090565b6000600760009054906101000a900473ffffffffffffffffffffffffffffffffffffffff16905081600760006101000a81548173ffffffffffffffffffffffffffffffffffffffff021916908373ffffffffffffffffffffffffffffffffffffffff1602179055508173ffffffffffffffffffffffffffffffffffffffff168173ffffffffffffffffffffffffffffffffffffffff167f8be0079c531659141344cd1fd0a4f28419497f9722a3daafe3b4186f6b6457e060405160405180910390a35050565b600081519050919050565b7f4e487b7100000000000000000000000000000000000000000000000000000000600052604160045260246000fd5b7f4e487b7100000000000000000000000000000000000000000000000000000000600052602260045260246000fd5b600060028204905060018216806200022557607f821691505b6020821081036200023b576200023a620001dd565b5b50919050565b60008190508160005260206000209050919050565b60006020601f8301049050919050565b600082821b905092915050565b600060088302620002a57fffffffffffffffffffffffffffffffffffffffffffffffffffffffffffffffff8262000266565b620002b1868362000266565b95508019841693508086168417925050509392505050565b6000819050919050565b6000819050919050565b6000620002fe620002f8620002f284620002c9565b620002d3565b620002c9565b9050919050565b6000819050919050565b6200031a83620002dd565b62000332620003298262000305565b84845462000273565b825550505050565b600090565b620003496200033a565b620003568184846200030f565b505050565b5b818110156200037e57620003726000826200033f565b6001810190506200035c565b5050565b601f821115620003cd57620003978162000241565b620003a28462000256565b81016020851015620003b2578190505b620003ca620003c18562000256565b8301826200035b565b50505b505050565b600082821c905092915050565b6000620003f260001984600802620003d2565b1980831691505092915050565b60006200040d8383620003df565b9150826002028217905092915050565b6200042882620001a3565b67ffffffffffffffff811115620004445762000443620001ae565b5b6200045082546200020c565b6200045d82828562000382565b600060209050601f83116001811462000495576000841562000480578287015190505b6200048c8582620003ff565b865550620004fc565b601f198416620004a58662000241565b60005b82811015620004cf57848901518255600182019150602085019450602081019050620004a8565b86831015620004ef5784890151620004eb601f891682620003df565b8355505b6001600288020188555050505b505050505050565b614e4980620005146000396000f3fe6080604052600436106101cd5760003560e01c806370a08231116100f7578063a22cb46511610095578063c87b56dd11610064578063c87b56dd14610685578063ccb4918d146106c2578063e985e9c5146106ed578063f2fde38b1461072a576101cd565b8063a22cb465146105d8578063b88d4fde14610601578063c046372c1461062a578063c78f19f91461065a576101cd565b80637b47ec1a116100d15780637b47ec1a146105305780637c726b69146105595780638da5cb5b1461058257806395d89b41146105ad576101cd565b806370a08231146104b157806370cbcb43146104ee578063715018a614610519576101cd565b8063243adbdd1161016f57806343d32ae71161013e57806343d32ae7146103bd5780634f6ccce7146103fa5780636352211e146104375780636f1a0af514610474576101cd565b8063243adbdd146103105780632f745c591461032c57806336b536be1461036957806342842e0e14610394576101cd565b8063095ea7b3116101ab578063095ea7b31461027757806318160ddd146102a057806321f422e5146102cb57806323b872dd146102e7576101cd565b806301ffc9a7146101d257806306fdde031461020f578063081812fc1461023a575b600080fd5b3480156101de57600080fd5b506101f960048036038101906101f49190613127565b610753565b604051610206919061316f565b60405180910390f35b34801561021b57600080fd5b50610224610835565b604051610231919061321a565b60405180910390f35b34801561024657600080fd5b50610261600480360381019061025c9190613272565b6108c7565b60405161026e91906132e0565b60405180910390f35b34801561028357600080fd5b5061029e60048036038101906102999190613327565b61094c565b005b3480156102ac57600080fd5b506102b5610a63565b6040516102c29190613376565b60405180910390f35b6102e560048036038101906102e09190613391565b610a70565b005b3480156102f357600080fd5b5061030e600480360381019061030991906133d1565b610bec565b005b61032a60048036038101906103259190613272565b610c4c565b005b34801561033857600080fd5b50610353600480360381019061034e9190613327565b610db4565b6040516103609190613376565b60405180910390f35b34801561037557600080fd5b5061037e610e59565b60405161038b9190613555565b60405180910390f35b3480156103a057600080fd5b506103bb60048036038101906103b691906133d1565b610fed565b005b3480156103c957600080fd5b506103e460048036038101906103df91906136ac565b61100d565b6040516103f1919061316f565b60405180910390f35b34801561040657600080fd5b50610421600480360381019061041c9190613272565b611049565b60405161042e9190613376565b60405180910390f35b34801561044357600080fd5b5061045e60048036038101906104599190613272565b6110ba565b60405161046b91906132e0565b60405180910390f35b34801561048057600080fd5b5061049b60048036038101906104969190613272565b61116b565b6040516104a8919061374a565b60405180910390f35b3480156104bd57600080fd5b506104d860048036038101906104d39190613765565b61121d565b6040516104e59190613376565b60405180910390f35b3480156104fa57600080fd5b506105036112d4565b6040516105109190613555565b60405180910390f35b34801561052557600080fd5b5061052e611438565b005b34801561053c57600080fd5b5061055760048036038101906105529190613272565b6114c0565b005b34801561056557600080fd5b50610580600480360381019061057b9190613272565b6114cc565b005b34801561058e57600080fd5b50610597611595565b6040516105a491906132e0565b60405180910390f35b3480156105b957600080fd5b506105c26115bf565b6040516105cf919061321a565b60405180910390f35b3480156105e457600080fd5b506105ff60048036038101906105fa91906137be565b611651565b005b34801561060d57600080fd5b506106286004803603810190610623919061389f565b611667565b005b610644600480360381019061063f9190613922565b6116c9565b6040516106519190613376565b60405180910390f35b34801561066657600080fd5b5061066f6117d9565b60405161067c9190613376565b60405180910390f35b34801561069157600080fd5b506106ac60048036038101906106a79190613272565b6117df565b6040516106b9919061321a565b60405180910390f35b3480156106ce57600080fd5b506106d7611930565b6040516106e49190613376565b60405180910390f35b3480156106f957600080fd5b50610714600480360381019061070f919061397e565b611941565b604051610721919061316f565b60405180910390f35b34801561073657600080fd5b50610751600480360381019061074c9190613765565b6119d5565b005b60007f80ac58cd000000000000000000000000000000000000000000000000000000007bffffffffffffffffffffffffffffffffffffffffffffffffffffffff1916827bffffffffffffffffffffffffffffffffffffffffffffffffffffffff1916148061081e57507f5b5e139f000000000000000000000000000000000000000000000000000000007bffffffffffffffffffffffffffffffffffffffffffffffffffffffff1916827bffffffffffffffffffffffffffffffffffffffffffffffffffffffff1916145b8061082e575061082d82611acc565b5b9050919050565b606060008054610844906139ed565b80601f0160208091040260200160405190810160405280929190818152602001828054610870906139ed565b80156108bd5780601f10610892576101008083540402835291602001916108bd565b820191906000526020600020905b8154815290600101906020018083116108a057829003601f168201915b5050505050905090565b60006108d282611b36565b610911576040517f08c379a000000000000000000000000000000000000000000000000000000000815260040161090890613a90565b60405180910390fd5b6004600083815260200190815260200160002060009054906101000a900473ffffffffffffffffffffffffffffffffffffffff169050919050565b6000610957826110ba565b90508073ffffffffffffffffffffffffffffffffffffffff168373ffffffffffffffffffffffffffffffffffffffff16036109c7576040517f08c379a00000000000000000000000000000000000000000000000000000000081526004016109be90613b22565b60405180910390fd5b8073ffffffffffffffffffffffffffffffffffffffff166109e6611ba2565b73ffffffffffffffffffffffffffffffffffffffff161480610a155750610a1481610a0f611ba2565b611941565b5b610a54576040517f08c379a0000000000000000000000000000000000000000000000000000000008152600401610a4b90613bb4565b60405180910390fd5b610a5e8383611baa565b505050565b6000600d80549050905090565b3373ffffffffffffffffffffffffffffffffffffffff16610a90836110ba565b73ffffffffffffffffffffffffffffffffffffffff1614610ae6576040517f08c379a0000000000000000000000000000000000000000000000000000000008152600401610add90613c20565b60405180910390fd5b60001515600c600084815260200190815260200160002060020160149054906101000a900460ff16151514610b50576040517f08c379a0000000000000000000000000000000000000000000000000000000008152600401610b4790613c8c565b60405180910390fd5b6008543414610b94576040517f08c379a0000000000000000000000000000000000000000000000000000000008152600401610b8b90613d1e565b60405180910390fd5b6001600c600084815260200190815260200160002060020160146101000a81548160ff02191690831515021790555080600c600084815260200190815260200160002060010181905550610be86009611c63565b5050565b610bfd610bf7611ba2565b82611c79565b610c3c576040517f08c379a0000000000000000000000000000000000000000000000000000000008152600401610c3390613db0565b60405180910390fd5b610c47838383611d57565b505050565b6000600c60008381526020019081526020016000206001015490506000610c72836110ba565b90508073ffffffffffffffffffffffffffffffffffffffff163373ffffffffffffffffffffffffffffffffffffffff1603610ce2576040517f08c379a0000000000000000000000000000000000000000000000000000000008152600401610cd990613e1c565b60405180910390fd5b813414610d24576040517f08c379a0000000000000000000000000000000000000000000000000000000008152600401610d1b90613e88565b60405180910390fd5b6000600c600085815260200190815260200160002060020160146101000a81548160ff021916908315150217905550610d5d6009611fbd565b610d68813385611d57565b8073ffffffffffffffffffffffffffffffffffffffff166108fc349081150290604051600060405180830381858888f19350505050158015610dae573d6000803e3d6000fd5b50505050565b6000610dbf8361121d565b8210610e00576040517f08c379a0000000000000000000000000000000000000000000000000000000008152600401610df790613ef4565b60405180910390fd5b600f60008473ffffffffffffffffffffffffffffffffffffffff1673ffffffffffffffffffffffffffffffffffffffff168152602001908152602001600020600083815260200190815260200160002054905092915050565b60606000610e65610a63565b9050600080610e746009612019565b67ffffffffffffffff811115610e8d57610e8c613581565b5b604051908082528060200260200182016040528015610ec657816020015b610eb361301e565b815260200190600190039081610eab5790505b50905060005b83811015610fe3576000610edf82611049565b90506000600c600083815260200190815260200160002090508060020160149054906101000a900460ff1615610fce578060405180608001604052908160008201548152602001600182015481526020016002820160009054906101000a900473ffffffffffffffffffffffffffffffffffffffff1673ffffffffffffffffffffffffffffffffffffffff1673ffffffffffffffffffffffffffffffffffffffff1681526020016002820160149054906101000a900460ff161515151581525050848681518110610fb357610fb2613f14565b5b6020026020010181905250600185610fcb9190613f72565b94505b50508080610fdb90613fa6565b915050610ecc565b5080935050505090565b61100883838360405180602001604052806000815250611667565b505050565b600060011515600b83604051611023919061402a565b908152602001604051809103902060009054906101000a900460ff161515149050919050565b6000611053610a63565b8210611094576040517f08c379a000000000000000000000000000000000000000000000000000000000815260040161108b90613ef4565b60405180910390fd5b600d82815481106110a8576110a7613f14565b5b90600052602060002001549050919050565b6000806002600084815260200190815260200160002060009054906101000a900473ffffffffffffffffffffffffffffffffffffffff169050600073ffffffffffffffffffffffffffffffffffffffff168173ffffffffffffffffffffffffffffffffffffffff1603611162576040517f08c379a0000000000000000000000000000000000000000000000000000000008152600401611159906140b3565b60405180910390fd5b80915050919050565b61117361301e565b600c600083815260200190815260200160002060405180608001604052908160008201548152602001600182015481526020016002820160009054906101000a900473ffffffffffffffffffffffffffffffffffffffff1673ffffffffffffffffffffffffffffffffffffffff1673ffffffffffffffffffffffffffffffffffffffff1681526020016002820160149054906101000a900460ff1615151515815250509050919050565b60008073ffffffffffffffffffffffffffffffffffffffff168273ffffffffffffffffffffffffffffffffffffffff160361128d576040517f08c379a000000000000000000000000000000000000000000000000000000000815260040161128490614145565b60405180910390fd5b600360008373ffffffffffffffffffffffffffffffffffffffff1673ffffffffffffffffffffffffffffffffffffffff168152602001908152602001600020549050919050565b606060006112e13361121d565b905060008167ffffffffffffffff8111156112ff576112fe613581565b5b60405190808252806020026020018201604052801561133857816020015b61132561301e565b81526020019060019003908161131d5790505b50905060005b8281101561142f5760006113523383610db4565b90506000600c600083815260200190815260200160002090508060405180608001604052908160008201548152602001600182015481526020016002820160009054906101000a900473ffffffffffffffffffffffffffffffffffffffff1673ffffffffffffffffffffffffffffffffffffffff1673ffffffffffffffffffffffffffffffffffffffff1681526020016002820160149054906101000a900460ff16151515158152505084848151811061140f5761140e613f14565b5b60200260200101819052505050808061142790613fa6565b91505061133e565b50809250505090565b611440611ba2565b73ffffffffffffffffffffffffffffffffffffffff1661145e611595565b73ffffffffffffffffffffffffffffffffffffffff16146114b4576040517f08c379a00000000000000000000000000000000000000000000000000000000081526004016114ab906141b1565b60405180910390fd5b6114be6000612027565b565b6114c9816120ed565b50565b6114d4611ba2565b73ffffffffffffffffffffffffffffffffffffffff166114f2611595565b73ffffffffffffffffffffffffffffffffffffffff1614611548576040517f08c379a000000000000000000000000000000000000000000000000000000000815260040161153f906141b1565b60405180910390fd5b6000811161158b576040517f08c379a00000000000000000000000000000000000000000000000000000000081526004016115829061421d565b60405180910390fd5b8060088190555050565b6000600760009054906101000a900473ffffffffffffffffffffffffffffffffffffffff16905090565b6060600180546115ce906139ed565b80601f01602080910402602001604051908101604052809291908181526020018280546115fa906139ed565b80156116475780601f1061161c57610100808354040283529160200191611647565b820191906000526020600020905b81548152906001019060200180831161162a57829003601f168201915b5050505050905090565b61166361165c611ba2565b8383612140565b5050565b611678611672611ba2565b83611c79565b6116b7576040517f08c379a00000000000000000000000000000000000000000000000000000000081526004016116ae90613db0565b60405180910390fd5b6116c3848484846122ac565b50505050565b60006116d48361100d565b15611714576040517f08c379a000000000000000000000000000000000000000000000000000000000815260040161170b90614289565b60405180910390fd5b6008543414611758576040517f08c379a000000000000000000000000000000000000000000000000000000000815260040161174f90613d1e565b60405180910390fd5b611762600a611c63565b61176c6009611c63565b6000611778600a612019565b90506117843382612308565b61178e8185612326565b6117988184612393565b6001600b856040516117aa919061402a565b908152602001604051809103902060006101000a81548160ff0219169083151502179055508091505092915050565b60085481565b60606117ea82611b36565b611829576040517f08c379a00000000000000000000000000000000000000000000000000000000081526004016118209061431b565b60405180910390fd5b6000600660008481526020019081526020016000208054611849906139ed565b80601f0160208091040260200160405190810160405280929190818152602001828054611875906139ed565b80156118c25780601f10611897576101008083540402835291602001916118c2565b820191906000526020600020905b8154815290600101906020018083116118a557829003601f168201915b5050505050905060006118d36124e3565b905060008151036118e857819250505061192b565b60008251111561191d57808260405160200161190592919061433b565b6040516020818303038152906040529250505061192b565b611926846124fa565b925050505b919050565b600061193c6009612019565b905090565b6000600560008473ffffffffffffffffffffffffffffffffffffffff1673ffffffffffffffffffffffffffffffffffffffff16815260200190815260200160002060008373ffffffffffffffffffffffffffffffffffffffff1673ffffffffffffffffffffffffffffffffffffffff16815260200190815260200160002060009054906101000a900460ff16905092915050565b6119dd611ba2565b73ffffffffffffffffffffffffffffffffffffffff166119fb611595565b73ffffffffffffffffffffffffffffffffffffffff1614611a51576040517f08c379a0000000000000000000000000000000000000000000000000000000008152600401611a48906141b1565b60405180910390fd5b600073ffffffffffffffffffffffffffffffffffffffff168173ffffffffffffffffffffffffffffffffffffffff1603611ac0576040517f08c379a0000000000000000000000000000000000000000000000000000000008152600401611ab7906143d1565b60405180910390fd5b611ac981612027565b50565b60007f01ffc9a7000000000000000000000000000000000000000000000000000000007bffffffffffffffffffffffffffffffffffffffffffffffffffffffff1916827bffffffffffffffffffffffffffffffffffffffffffffffffffffffff1916149050919050565b60008073ffffffffffffffffffffffffffffffffffffffff166002600084815260200190815260200160002060009054906101000a900473ffffffffffffffffffffffffffffffffffffffff1673ffffffffffffffffffffffffffffffffffffffff1614159050919050565b600033905090565b816004600083815260200190815260200160002060006101000a81548173ffffffffffffffffffffffffffffffffffffffff021916908373ffffffffffffffffffffffffffffffffffffffff160217905550808273ffffffffffffffffffffffffffffffffffffffff16611c1d836110ba565b73ffffffffffffffffffffffffffffffffffffffff167f8c5be1e5ebec7d5bd14f71427d1e84f3dd0314c0f7b2291e5b200ac8c7c3b92560405160405180910390a45050565b6001816000016000828254019250508190555050565b6000611c8482611b36565b611cc3576040517f08c379a0000000000000000000000000000000000000000000000000000000008152600401611cba90614463565b60405180910390fd5b6000611cce836110ba565b90508073ffffffffffffffffffffffffffffffffffffffff168473ffffffffffffffffffffffffffffffffffffffff161480611d3d57508373ffffffffffffffffffffffffffffffffffffffff16611d25846108c7565b73ffffffffffffffffffffffffffffffffffffffff16145b80611d4e5750611d4d8185611941565b5b91505092915050565b8273ffffffffffffffffffffffffffffffffffffffff16611d77826110ba565b73ffffffffffffffffffffffffffffffffffffffff1614611dcd576040517f08c379a0000000000000000000000000000000000000000000000000000000008152600401611dc4906144f5565b60405180910390fd5b600073ffffffffffffffffffffffffffffffffffffffff168273ffffffffffffffffffffffffffffffffffffffff1603611e3c576040517f08c379a0000000000000000000000000000000000000000000000000000000008152600401611e3390614587565b60405180910390fd5b611e478383836125a1565b611e52600082611baa565b6001600360008573ffffffffffffffffffffffffffffffffffffffff1673ffffffffffffffffffffffffffffffffffffffff1681526020019081526020016000206000828254611ea291906145a7565b925050819055506001600360008473ffffffffffffffffffffffffffffffffffffffff1673ffffffffffffffffffffffffffffffffffffffff1681526020019081526020016000206000828254611ef99190613f72565b92505081905550816002600083815260200190815260200160002060006101000a81548173ffffffffffffffffffffffffffffffffffffffff021916908373ffffffffffffffffffffffffffffffffffffffff160217905550808273ffffffffffffffffffffffffffffffffffffffff168473ffffffffffffffffffffffffffffffffffffffff167fddf252ad1be2c89b69c2b068fc378daa952ba7f163c4a11628f55a4df523b3ef60405160405180910390a4611fb88383836126b3565b505050565b60008160000154905060008111612009576040517f08c379a000000000000000000000000000000000000000000000000000000000815260040161200090614627565b60405180910390fd5b6001810382600001819055505050565b600081600001549050919050565b6000600760009054906101000a900473ffffffffffffffffffffffffffffffffffffffff16905081600760006101000a81548173ffffffffffffffffffffffffffffffffffffffff021916908373ffffffffffffffffffffffffffffffffffffffff1602179055508173ffffffffffffffffffffffffffffffffffffffff168173ffffffffffffffffffffffffffffffffffffffff167f8be0079c531659141344cd1fd0a4f28419497f9722a3daafe3b4186f6b6457e060405160405180910390a35050565b6120f6816126b8565b6000600660008381526020019081526020016000208054612116906139ed565b90501461213d5760066000828152602001908152602001600020600061213c919061305e565b5b50565b8173ffffffffffffffffffffffffffffffffffffffff168373ffffffffffffffffffffffffffffffffffffffff16036121ae576040517f08c379a00000000000000000000000000000000000000000000000000000000081526004016121a590614693565b60405180910390fd5b80600560008573ffffffffffffffffffffffffffffffffffffffff1673ffffffffffffffffffffffffffffffffffffffff16815260200190815260200160002060008473ffffffffffffffffffffffffffffffffffffffff1673ffffffffffffffffffffffffffffffffffffffff16815260200190815260200160002060006101000a81548160ff0219169083151502179055508173ffffffffffffffffffffffffffffffffffffffff168373ffffffffffffffffffffffffffffffffffffffff167f17307eab39ab6107e8899845ad3d59bd9653f200f220920489ca2b5937696c318360405161229f919061316f565b60405180910390a3505050565b6122b7848484611d57565b6122c3848484846127d5565b612302576040517f08c379a00000000000000000000000000000000000000000000000000000000081526004016122f990614725565b60405180910390fd5b50505050565b61232282826040518060200160405280600081525061295c565b5050565b61232f82611b36565b61236e576040517f08c379a0000000000000000000000000000000000000000000000000000000008152600401612365906147b7565b60405180910390fd5b8060066000848152602001908152602001600020908161238e9190614983565b505050565b600081116123d6576040517f08c379a00000000000000000000000000000000000000000000000000000000081526004016123cd90614aa1565b60405180910390fd5b60405180608001604052808381526020018281526020013373ffffffffffffffffffffffffffffffffffffffff16815260200160011515815250600c6000848152602001908152602001600020600082015181600001556020820151816001015560408201518160020160006101000a81548173ffffffffffffffffffffffffffffffffffffffff021916908373ffffffffffffffffffffffffffffffffffffffff16021790555060608201518160020160146101000a81548160ff0219169083151502179055509050507fde3060bc4c35438b965351819fd58f21c891b4efa521f5f2db6e1cf86837ee6982823360016040516124d79493929190614ac1565b60405180910390a15050565b606060405180602001604052806000815250905090565b606061250582611b36565b612544576040517f08c379a000000000000000000000000000000000000000000000000000000000815260040161253b90614b78565b60405180910390fd5b600061254e6124e3565b9050600081511161256e5760405180602001604052806000815250612599565b80612578846129b7565b60405160200161258992919061433b565b6040516020818303038152906040525b915050919050565b6125ac838383612b17565b600073ffffffffffffffffffffffffffffffffffffffff168373ffffffffffffffffffffffffffffffffffffffff16036125ee576125e981612b1c565b61262d565b8173ffffffffffffffffffffffffffffffffffffffff168373ffffffffffffffffffffffffffffffffffffffff161461262c5761262b8382612b65565b5b5b600073ffffffffffffffffffffffffffffffffffffffff168273ffffffffffffffffffffffffffffffffffffffff160361266f5761266a81612cd2565b6126ae565b8273ffffffffffffffffffffffffffffffffffffffff168273ffffffffffffffffffffffffffffffffffffffff16146126ad576126ac8282612da3565b5b5b505050565b505050565b60006126c3826110ba565b90506126d1816000846125a1565b6126dc600083611baa565b6001600360008373ffffffffffffffffffffffffffffffffffffffff1673ffffffffffffffffffffffffffffffffffffffff168152602001908152602001600020600082825461272c91906145a7565b925050819055506002600083815260200190815260200160002060006101000a81549073ffffffffffffffffffffffffffffffffffffffff021916905581600073ffffffffffffffffffffffffffffffffffffffff168273ffffffffffffffffffffffffffffffffffffffff167fddf252ad1be2c89b69c2b068fc378daa952ba7f163c4a11628f55a4df523b3ef60405160405180910390a46127d1816000846126b3565b5050565b60006127f68473ffffffffffffffffffffffffffffffffffffffff16612e22565b1561294f578373ffffffffffffffffffffffffffffffffffffffff1663150b7a0261281f611ba2565b8786866040518563ffffffff1660e01b81526004016128419493929190614bed565b6020604051808303816000875af192505050801561287d57506040513d601f19601f8201168201806040525081019061287a9190614c4e565b60015b6128ff573d80600081146128ad576040519150601f19603f3d011682016040523d82523d6000602084013e6128b2565b606091505b5060008151036128f7576040517f08c379a00000000000000000000000000000000000000000000000000000000081526004016128ee90614725565b60405180910390fd5b805181602001fd5b63150b7a0260e01b7bffffffffffffffffffffffffffffffffffffffffffffffffffffffff1916817bffffffffffffffffffffffffffffffffffffffffffffffffffffffff191614915050612954565b600190505b949350505050565b6129668383612e45565b61297360008484846127d5565b6129b2576040517f08c379a00000000000000000000000000000000000000000000000000000000081526004016129a990614725565b60405180910390fd5b505050565b6060600082036129fe576040518060400160405280600181526020017f30000000000000000000000000000000000000000000000000000000000000008152509050612b12565b600082905060005b60008214612a30578080612a1990613fa6565b915050600a82612a299190614caa565b9150612a06565b60008167ffffffffffffffff811115612a4c57612a4b613581565b5b6040519080825280601f01601f191660200182016040528015612a7e5781602001600182028036833780820191505090505b5090505b60008514612b0b57600182612a9791906145a7565b9150600a85612aa69190614cdb565b6030612ab29190613f72565b60f81b818381518110612ac857612ac7613f14565b5b60200101907effffffffffffffffffffffffffffffffffffffffffffffffffffffffffffff1916908160001a905350600a85612b049190614caa565b9450612a82565b8093505050505b919050565b505050565b600d80549050600e600083815260200190815260200160002081905550600d81908060018154018082558091505060019003906000526020600020016000909190919091505550565b60006001612b728461121d565b612b7c91906145a7565b9050600060106000848152602001908152602001600020549050818114612c61576000600f60008673ffffffffffffffffffffffffffffffffffffffff1673ffffffffffffffffffffffffffffffffffffffff168152602001908152602001600020600083815260200190815260200160002054905080600f60008773ffffffffffffffffffffffffffffffffffffffff1673ffffffffffffffffffffffffffffffffffffffff168152602001908152602001600020600084815260200190815260200160002081905550816010600083815260200190815260200160002081905550505b6010600084815260200190815260200160002060009055600f60008573ffffffffffffffffffffffffffffffffffffffff1673ffffffffffffffffffffffffffffffffffffffff16815260200190815260200160002060008381526020019081526020016000206000905550505050565b60006001600d80549050612ce691906145a7565b90506000600e60008481526020019081526020016000205490506000600d8381548110612d1657612d15613f14565b5b9060005260206000200154905080600d8381548110612d3857612d37613f14565b5b906000526020600020018190555081600e600083815260200190815260200160002081905550600e600085815260200190815260200160002060009055600d805480612d8757612d86614d0c565b5b6001900381819060005260206000200160009055905550505050565b6000612dae8361121d565b905081600f60008573ffffffffffffffffffffffffffffffffffffffff1673ffffffffffffffffffffffffffffffffffffffff168152602001908152602001600020600083815260200190815260200160002081905550806010600084815260200190815260200160002081905550505050565b6000808273ffffffffffffffffffffffffffffffffffffffff163b119050919050565b600073ffffffffffffffffffffffffffffffffffffffff168273ffffffffffffffffffffffffffffffffffffffff1603612eb4576040517f08c379a0000000000000000000000000000000000000000000000000000000008152600401612eab90614d87565b60405180910390fd5b612ebd81611b36565b15612efd576040517f08c379a0000000000000000000000000000000000000000000000000000000008152600401612ef490614df3565b60405180910390fd5b612f09600083836125a1565b6001600360008473ffffffffffffffffffffffffffffffffffffffff1673ffffffffffffffffffffffffffffffffffffffff1681526020019081526020016000206000828254612f599190613f72565b92505081905550816002600083815260200190815260200160002060006101000a81548173ffffffffffffffffffffffffffffffffffffffff021916908373ffffffffffffffffffffffffffffffffffffffff160217905550808273ffffffffffffffffffffffffffffffffffffffff16600073ffffffffffffffffffffffffffffffffffffffff167fddf252ad1be2c89b69c2b068fc378daa952ba7f163c4a11628f55a4df523b3ef60405160405180910390a461301a600083836126b3565b5050565b60405180608001604052806000815260200160008152602001600073ffffffffffffffffffffffffffffffffffffffff1681526020016000151581525090565b50805461306a906139ed565b6000825580601f1061307c575061309b565b601f01602090049060005260206000209081019061309a919061309e565b5b50565b5b808211156130b757600081600090555060010161309f565b5090565b6000604051905090565b600080fd5b600080fd5b60007fffffffff0000000000000000000000000000000000000000000000000000000082169050919050565b613104816130cf565b811461310f57600080fd5b50565b600081359050613121816130fb565b92915050565b60006020828403121561313d5761313c6130c5565b5b600061314b84828501613112565b91505092915050565b60008115159050919050565b61316981613154565b82525050565b60006020820190506131846000830184613160565b92915050565b600081519050919050565b600082825260208201905092915050565b60005b838110156131c45780820151818401526020810190506131a9565b60008484015250505050565b6000601f19601f8301169050919050565b60006131ec8261318a565b6131f68185613195565b93506132068185602086016131a6565b61320f816131d0565b840191505092915050565b6000602082019050818103600083015261323481846131e1565b905092915050565b6000819050919050565b61324f8161323c565b811461325a57600080fd5b50565b60008135905061326c81613246565b92915050565b600060208284031215613288576132876130c5565b5b60006132968482850161325d565b91505092915050565b600073ffffffffffffffffffffffffffffffffffffffff82169050919050565b60006132ca8261329f565b9050919050565b6132da816132bf565b82525050565b60006020820190506132f560008301846132d1565b92915050565b613304816132bf565b811461330f57600080fd5b50565b600081359050613321816132fb565b92915050565b6000806040838503121561333e5761333d6130c5565b5b600061334c85828601613312565b925050602061335d8582860161325d565b9150509250929050565b6133708161323c565b82525050565b600060208201905061338b6000830184613367565b92915050565b600080604083850312156133a8576133a76130c5565b5b60006133b68582860161325d565b92505060206133c78582860161325d565b9150509250929050565b6000806000606084860312156133ea576133e96130c5565b5b60006133f886828701613312565b935050602061340986828701613312565b925050604061341a8682870161325d565b9150509250925092565b600081519050919050565b600082825260208201905092915050565b6000819050602082019050919050565b6134598161323c565b82525050565b613468816132bf565b82525050565b61347781613154565b82525050565b6080820160008201516134936000850182613450565b5060208201516134a66020850182613450565b5060408201516134b9604085018261345f565b5060608201516134cc606085018261346e565b50505050565b60006134de838361347d565b60808301905092915050565b6000602082019050919050565b600061350282613424565b61350c818561342f565b935061351783613440565b8060005b8381101561354857815161352f88826134d2565b975061353a836134ea565b92505060018101905061351b565b5085935050505092915050565b6000602082019050818103600083015261356f81846134f7565b905092915050565b600080fd5b600080fd5b7f4e487b7100000000000000000000000000000000000000000000000000000000600052604160045260246000fd5b6135b9826131d0565b810181811067ffffffffffffffff821117156135d8576135d7613581565b5b80604052505050565b60006135eb6130bb565b90506135f782826135b0565b919050565b600067ffffffffffffffff82111561361757613616613581565b5b613620826131d0565b9050602081019050919050565b82818337600083830152505050565b600061364f61364a846135fc565b6135e1565b90508281526020810184848401111561366b5761366a61357c565b5b61367684828561362d565b509392505050565b600082601f83011261369357613692613577565b5b81356136a384826020860161363c565b91505092915050565b6000602082840312156136c2576136c16130c5565b5b600082013567ffffffffffffffff8111156136e0576136df6130ca565b5b6136ec8482850161367e565b91505092915050565b60808201600082015161370b6000850182613450565b50602082015161371e6020850182613450565b506040820151613731604085018261345f565b506060820151613744606085018261346e565b50505050565b600060808201905061375f60008301846136f5565b92915050565b60006020828403121561377b5761377a6130c5565b5b600061378984828501613312565b91505092915050565b61379b81613154565b81146137a657600080fd5b50565b6000813590506137b881613792565b92915050565b600080604083850312156137d5576137d46130c5565b5b60006137e385828601613312565b92505060206137f4858286016137a9565b9150509250929050565b600067ffffffffffffffff82111561381957613818613581565b5b613822826131d0565b9050602081019050919050565b600061384261383d846137fe565b6135e1565b90508281526020810184848401111561385e5761385d61357c565b5b61386984828561362d565b509392505050565b600082601f83011261388657613885613577565b5b813561389684826020860161382f565b91505092915050565b600080600080608085870312156138b9576138b86130c5565b5b60006138c787828801613312565b94505060206138d887828801613312565b93505060406138e98782880161325d565b925050606085013567ffffffffffffffff81111561390a576139096130ca565b5b61391687828801613871565b91505092959194509250565b60008060408385031215613939576139386130c5565b5b600083013567ffffffffffffffff811115613957576139566130ca565b5b6139638582860161367e565b92505060206139748582860161325d565b9150509250929050565b60008060408385031215613995576139946130c5565b5b60006139a385828601613312565b92505060206139b485828601613312565b9150509250929050565b7f4e487b7100000000000000000000000000000000000000000000000000000000600052602260045260246000fd5b60006002820490506001821680613a0557607f821691505b602082108103613a1857613a176139be565b5b50919050565b7f4552433732313a20617070726f76656420717565727920666f72206e6f6e657860008201527f697374656e7420746f6b656e0000000000000000000000000000000000000000602082015250565b6000613a7a602c83613195565b9150613a8582613a1e565b604082019050919050565b60006020820190508181036000830152613aa981613a6d565b9050919050565b7f4552433732313a20617070726f76616c20746f2063757272656e74206f776e6560008201527f7200000000000000000000000000000000000000000000000000000000000000602082015250565b6000613b0c602183613195565b9150613b1782613ab0565b604082019050919050565b60006020820190508181036000830152613b3b81613aff565b9050919050565b7f4552433732313a20617070726f76652063616c6c6572206973206e6f74206f7760008201527f6e6572206e6f7220617070726f76656420666f7220616c6c0000000000000000602082015250565b6000613b9e603883613195565b9150613ba982613b42565b604082019050919050565b60006020820190508181036000830152613bcd81613b91565b9050919050565b7f596f7520617265206e6f74206f776e6572206f662074686973204e6674000000600082015250565b6000613c0a601d83613195565b9150613c1582613bd4565b602082019050919050565b60006020820190508181036000830152613c3981613bfd565b9050919050565b7f4974656d20697320616c7265616479206f6e2073616c65000000000000000000600082015250565b6000613c76601783613195565b9150613c8182613c40565b602082019050919050565b60006020820190508181036000830152613ca581613c69565b9050919050565b7f5072696365206d75737420626520657175616c20746f206c697374696e67207060008201527f7269636500000000000000000000000000000000000000000000000000000000602082015250565b6000613d08602483613195565b9150613d1382613cac565b604082019050919050565b60006020820190508181036000830152613d3781613cfb565b9050919050565b7f4552433732313a207472616e736665722063616c6c6572206973206e6f74206f60008201527f776e6572206e6f7220617070726f766564000000000000000000000000000000602082015250565b6000613d9a603183613195565b9150613da582613d3e565b604082019050919050565b60006020820190508181036000830152613dc981613d8d565b9050919050565b7f596f757220616c7265616479206f776e2074686973206e667400000000000000600082015250565b6000613e06601983613195565b9150613e1182613dd0565b602082019050919050565b60006020820190508181036000830152613e3581613df9565b9050919050565b7f506c65617365207375626d6974207468652061736b696e672070726963650000600082015250565b6000613e72601e83613195565b9150613e7d82613e3c565b602082019050919050565b60006020820190508181036000830152613ea181613e65565b9050919050565b7f496e646578206f7574206f6620626f756e647300000000000000000000000000600082015250565b6000613ede601383613195565b9150613ee982613ea8565b602082019050919050565b60006020820190508181036000830152613f0d81613ed1565b9050919050565b7f4e487b7100000000000000000000000000000000000000000000000000000000600052603260045260246000fd5b7f4e487b7100000000000000000000000000000000000000000000000000000000600052601160045260246000fd5b6000613f7d8261323c565b9150613f888361323c565b9250828201905080821115613fa057613f9f613f43565b5b92915050565b6000613fb18261323c565b91507fffffffffffffffffffffffffffffffffffffffffffffffffffffffffffffffff8203613fe357613fe2613f43565b5b600182019050919050565b600081905092915050565b60006140048261318a565b61400e8185613fee565b935061401e8185602086016131a6565b80840191505092915050565b60006140368284613ff9565b915081905092915050565b7f4552433732313a206f776e657220717565727920666f72206e6f6e657869737460008201527f656e7420746f6b656e0000000000000000000000000000000000000000000000602082015250565b600061409d602983613195565b91506140a882614041565b604082019050919050565b600060208201905081810360008301526140cc81614090565b9050919050565b7f4552433732313a2062616c616e636520717565727920666f7220746865207a6560008201527f726f206164647265737300000000000000000000000000000000000000000000602082015250565b600061412f602a83613195565b915061413a826140d3565b604082019050919050565b6000602082019050818103600083015261415e81614122565b9050919050565b7f4f776e61626c653a2063616c6c6572206973206e6f7420746865206f776e6572600082015250565b600061419b602083613195565b91506141a682614165565b602082019050919050565b600060208201905081810360008301526141ca8161418e565b9050919050565b7f6e6577207072696365206d757374206265206174206c65617374203177616900600082015250565b6000614207601f83613195565b9150614212826141d1565b602082019050919050565b60006020820190508181036000830152614236816141fa565b9050919050565b7f546f6b656e2055524920616c7265616479206578697374730000000000000000600082015250565b6000614273601883613195565b915061427e8261423d565b602082019050919050565b600060208201905081810360008301526142a281614266565b9050919050565b7f45524337323155524953746f726167653a2055524920717565727920666f722060008201527f6e6f6e6578697374656e7420746f6b656e000000000000000000000000000000602082015250565b6000614305603183613195565b9150614310826142a9565b604082019050919050565b60006020820190508181036000830152614334816142f8565b9050919050565b60006143478285613ff9565b91506143538284613ff9565b91508190509392505050565b7f4f776e61626c653a206e6577206f776e657220697320746865207a65726f206160008201527f6464726573730000000000000000000000000000000000000000000000000000602082015250565b60006143bb602683613195565b91506143c68261435f565b604082019050919050565b600060208201905081810360008301526143ea816143ae565b9050919050565b7f4552433732313a206f70657261746f7220717565727920666f72206e6f6e657860008201527f697374656e7420746f6b656e0000000000000000000000000000000000000000602082015250565b600061444d602c83613195565b9150614458826143f1565b604082019050919050565b6000602082019050818103600083015261447c81614440565b9050919050565b7f4552433732313a207472616e736665722066726f6d20696e636f72726563742060008201527f6f776e6572000000000000000000000000000000000000000000000000000000602082015250565b60006144df602583613195565b91506144ea82614483565b604082019050919050565b6000602082019050818103600083015261450e816144d2565b9050919050565b7f4552433732313a207472616e7366657220746f20746865207a65726f2061646460008201527f7265737300000000000000000000000000000000000000000000000000000000602082015250565b6000614571602483613195565b915061457c82614515565b604082019050919050565b600060208201905081810360008301526145a081614564565b9050919050565b60006145b28261323c565b91506145bd8361323c565b92508282039050818111156145d5576145d4613f43565b5b92915050565b7f436f756e7465723a2064656372656d656e74206f766572666c6f770000000000600082015250565b6000614611601b83613195565b915061461c826145db565b602082019050919050565b6000602082019050818103600083015261464081614604565b9050919050565b7f4552433732313a20617070726f766520746f2063616c6c657200000000000000600082015250565b600061467d601983613195565b915061468882614647565b602082019050919050565b600060208201905081810360008301526146ac81614670565b9050919050565b7f4552433732313a207472616e7366657220746f206e6f6e20455243373231526560008201527f63656976657220696d706c656d656e7465720000000000000000000000000000602082015250565b600061470f603283613195565b915061471a826146b3565b604082019050919050565b6000602082019050818103600083015261473e81614702565b9050919050565b7f45524337323155524953746f726167653a2055524920736574206f66206e6f6e60008201527f6578697374656e7420746f6b656e000000000000000000000000000000000000602082015250565b60006147a1602e83613195565b91506147ac82614745565b604082019050919050565b600060208201905081810360008301526147d081614794565b9050919050565b60008190508160005260206000209050919050565b60006020601f8301049050919050565b600082821b905092915050565b6000600883026148397fffffffffffffffffffffffffffffffffffffffffffffffffffffffffffffffff826147fc565b61484386836147fc565b95508019841693508086168417925050509392505050565b6000819050919050565b600061488061487b6148768461323c565b61485b565b61323c565b9050919050565b6000819050919050565b61489a83614865565b6148ae6148a682614887565b848454614809565b825550505050565b600090565b6148c36148b6565b6148ce818484614891565b505050565b5b818110156148f2576148e76000826148bb565b6001810190506148d4565b5050565b601f82111561493757614908816147d7565b614911846147ec565b81016020851015614920578190505b61493461492c856147ec565b8301826148d3565b50505b505050565b600082821c905092915050565b600061495a6000198460080261493c565b1980831691505092915050565b60006149738383614949565b9150826002028217905092915050565b61498c8261318a565b67ffffffffffffffff8111156149a5576149a4613581565b5b6149af82546139ed565b6149ba8282856148f6565b600060209050601f8311600181146149ed57600084156149db578287015190505b6149e58582614967565b865550614a4d565b601f1984166149fb866147d7565b60005b82811015614a23578489015182556001820191506020850194506020810190506149fe565b86831015614a405784890151614a3c601f891682614949565b8355505b6001600288020188555050505b505050505050565b7f5072696365206d757374206265206174206c6561737420312077656900000000600082015250565b6000614a8b601c83613195565b9150614a9682614a55565b602082019050919050565b60006020820190508181036000830152614aba81614a7e565b9050919050565b6000608082019050614ad66000830187613367565b614ae36020830186613367565b614af060408301856132d1565b614afd6060830184613160565b95945050505050565b7f4552433732314d657461646174613a2055524920717565727920666f72206e6f60008201527f6e6578697374656e7420746f6b656e0000000000000000000000000000000000602082015250565b6000614b62602f83613195565b9150614b6d82614b06565b604082019050919050565b60006020820190508181036000830152614b9181614b55565b9050919050565b600081519050919050565b600082825260208201905092915050565b6000614bbf82614b98565b614bc98185614ba3565b9350614bd98185602086016131a6565b614be2816131d0565b840191505092915050565b6000608082019050614c0260008301876132d1565b614c0f60208301866132d1565b614c1c6040830185613367565b8181036060830152614c2e8184614bb4565b905095945050505050565b600081519050614c48816130fb565b92915050565b600060208284031215614c6457614c636130c5565b5b6000614c7284828501614c39565b91505092915050565b7f4e487b7100000000000000000000000000000000000000000000000000000000600052601260045260246000fd5b6000614cb58261323c565b9150614cc08361323c565b925082614cd057614ccf614c7b565b5b828204905092915050565b6000614ce68261323c565b9150614cf18361323c565b925082614d0157614d00614c7b565b5b828206905092915050565b7f4e487b7100000000000000000000000000000000000000000000000000000000600052603160045260246000fd5b7f4552433732313a206d696e7420746f20746865207a65726f2061646472657373600082015250565b6000614d71602083613195565b9150614d7c82614d3b565b602082019050919050565b60006020820190508181036000830152614da081614d64565b9050919050565b7f4552433732313a20746f6b656e20616c7265616479206d696e74656400000000600082015250565b6000614ddd601c83613195565b9150614de882614da7565b602082019050919050565b60006020820190508181036000830152614e0c81614dd0565b905091905056fea26469706673582212202c6f1945f870347fa446ef5354981e6de62920a9fbc9ee088d3ae429aaa830f964736f6c63430008120033",
  "immutableReferences": {},
  "source": "// SPDX-License-Identifier: MIT\r\npragma solidity >=0.4.22 <0.9.0;\r\n\r\nimport \"@openzeppelin/contracts/token/ERC721/extensions/ERC721URIStorage.sol\";\r\nimport \"@openzeppelin/contracts/utils/Counters.sol\";\r\nimport \"@openzeppelin/contracts/access/Ownable.sol\";\r\n\r\ncontract NftMarket is ERC721URIStorage, Ownable {\r\n    using Counters for Counters.Counter;\r\n\r\n    uint public listingPrice = 0.025 ether;\r\n\r\n    struct NftItem {\r\n        uint tokenId;\r\n        uint price;\r\n        address creator;\r\n        bool isListed;\r\n    }\r\n\r\n    Counters.Counter private _listedItems;\r\n    Counters.Counter private _tokenIds;\r\n\r\n    mapping(string => bool) private _usedTokenURIs;\r\n    mapping(uint => NftItem) private _idToNftItem;\r\n\r\n    uint256[] private _allNfts;\r\n    mapping(uint => uint) private _idToNftIndex;\r\n\r\n    mapping(address => mapping(uint => uint)) private _ownedTokens;\r\n    mapping(uint => uint) private _idOwnedIndex;\r\n\r\n\r\n    event NftItemCreate (\r\n        uint tokenId,\r\n        uint price,\r\n        address creator,\r\n        bool isListed\r\n    );\r\n\r\n    constructor() ERC721(\"CoolNFT\", \"CNFT\") {}\r\n\r\n    function setListingPrice (uint newPrice) external onlyOwner {\r\n        require(newPrice > 0, 'new price must be at least 1wai');\r\n        listingPrice = newPrice;\r\n    }\r\n\r\n    function mintToken(string memory tokenURI, uint price) public payable returns (uint) {\r\n        require(!tokenURIExists(tokenURI), \"Token URI already exists\");\r\n        require(msg.value == listingPrice, \"Price must be equal to listing price\");\r\n\r\n        _tokenIds.increment();\r\n        _listedItems.increment();\r\n\r\n        uint newTokenId = _tokenIds.current();\r\n\r\n        _safeMint(msg.sender, newTokenId);\r\n        _setTokenURI(newTokenId, tokenURI);\r\n        _createNftItem(newTokenId, price);\r\n        _usedTokenURIs[tokenURI] = true;\r\n\r\n        return newTokenId;\r\n    }\r\n\r\n    function burnToken (uint tokenId) public  {\r\n        _burn(tokenId);\r\n    }\r\n\r\n    function buyNft(uint tokenId) public payable {\r\n        uint price = _idToNftItem[tokenId].price;\r\n        address owner = ERC721.ownerOf(tokenId);\r\n\r\n        require(msg.sender != owner, 'Your already own this nft');\r\n        require(msg.value == price, 'Please submit the asking price');\r\n\r\n        _idToNftItem[tokenId].isListed = false;\r\n        _listedItems.decrement();\r\n\r\n        _transfer(owner, msg.sender, tokenId);\r\n        payable(owner).transfer(msg.value);\r\n\r\n    }\r\n\r\n    function placeNftOnSale(uint tokenId, uint newPrice) public payable {\r\n        require(ERC721.ownerOf(tokenId) == msg.sender, 'You are not owner of this Nft');\r\n        require(_idToNftItem[tokenId].isListed == false, 'Item is already on sale' );\r\n        require(msg.value == listingPrice, 'Price must be equal to listing price');\r\n\r\n        _idToNftItem[tokenId].isListed = true;\r\n        _idToNftItem[tokenId].price = newPrice;\r\n        _listedItems.increment();\r\n    }\r\n\r\n    function getAllNftsOnSale() public view returns (NftItem[] memory) {\r\n        uint allItemsCount = totalSupply();\r\n        uint currentIndex = 0;\r\n        NftItem[] memory items = new NftItem[](_listedItems.current());\r\n\r\n        for (uint i = 0; i < allItemsCount; i++) {\r\n            uint tokenId = tokenByIndex(i);\r\n            NftItem storage item = _idToNftItem[tokenId];\r\n\r\n            if (item.isListed) {\r\n                items[currentIndex] = item;\r\n                currentIndex += 1;\r\n            }\r\n        }\r\n\r\n        return items;\r\n    }\r\n\r\n    function getOwnedNfts() public view returns (NftItem[] memory) {\r\n        uint ownedItemsCount = ERC721.balanceOf(msg.sender);\r\n        NftItem[] memory items = new NftItem[](ownedItemsCount);\r\n\r\n        for (uint i = 0; i < ownedItemsCount; i++) {\r\n            uint tokenId = tokenOfOwnerByIndex(msg.sender, i);\r\n            NftItem storage item = _idToNftItem[tokenId];\r\n            items[i] = item;\r\n        }\r\n\r\n        return items;\r\n    }\r\n\r\n    function tokenURIExists(string memory tokenURI) public view returns (bool) {\r\n        return _usedTokenURIs[tokenURI] == true;\r\n    }\r\n\r\n    function getNftItem(uint tokenId) public view returns (NftItem memory) {\r\n        return _idToNftItem[tokenId];\r\n    }\r\n\r\n    function listedItemsCount() public view returns (uint) {\r\n        return _listedItems.current();\r\n    }\r\n\r\n    function totalSupply() public view returns (uint) {\r\n        return _allNfts.length;\r\n    }\r\n\r\n    function tokenByIndex(uint index) public view returns (uint) {\r\n        require(index < totalSupply(), 'Index out of bounds');\r\n        return _allNfts[index];\r\n    }\r\n\r\n    function tokenOfOwnerByIndex(address owner, uint index) public view returns (uint) {\r\n        require(index < ERC721.balanceOf(owner), 'Index out of bounds');\r\n        return _ownedTokens[owner][index];\r\n    }\r\n\r\n    function _createNftItem(uint tokenId, uint price) private {\r\n        require(price > 0, 'Price must be at least 1 wei');\r\n\r\n        _idToNftItem[tokenId] = NftItem(\r\n            tokenId,\r\n            price,\r\n            msg.sender,\r\n            true\r\n        );\r\n\r\n        emit NftItemCreate(\r\n            tokenId,\r\n            price,\r\n            msg.sender,\r\n            true\r\n        );\r\n\r\n    }\r\n\r\n    function _beforeTokenTransfer(address from, address to, uint tokenId) internal virtual override {\r\n        super._beforeTokenTransfer(from, to, tokenId);\r\n\r\n        if (from == address(0)) {\r\n            _addTokenToAllTokensEnumeration(tokenId);\r\n        } else if (from != to) {\r\n            _removeTokenFromOwnerEnumaration(from, tokenId);\r\n        }\r\n\r\n        if(to == address(0)) {\r\n            _removeTokenFromAllTokensEnumeration(tokenId);\r\n        } else if (to != from) {\r\n            _addTokenToOwnerTokensEnumeration(to, tokenId);\r\n        }\r\n    }\r\n\r\n    function _addTokenToAllTokensEnumeration(uint tokenId) private {\r\n        _idToNftIndex[tokenId] = _allNfts.length;\r\n        _allNfts.push(tokenId);\r\n    }\r\n\r\n    function _addTokenToOwnerTokensEnumeration(address to, uint tokenId) private {\r\n        uint length = ERC721.balanceOf(to);\r\n        _ownedTokens[to][length] = tokenId;\r\n        _idOwnedIndex[tokenId] = length;\r\n    }\r\n\r\n    function _removeTokenFromOwnerEnumaration(address from, uint tokenId) private {\r\n        uint lastTokenIndex = ERC721.balanceOf(from) - 1;\r\n        uint tokenIndex = _idOwnedIndex[tokenId];\r\n\r\n        if (tokenIndex != lastTokenIndex) {\r\n            uint lastTokenId = _ownedTokens[from][tokenIndex];\r\n\r\n            _ownedTokens[from][tokenIndex] = lastTokenId;\r\n            _idOwnedIndex[lastTokenId] = tokenIndex;\r\n        }\r\n\r\n        delete _idOwnedIndex[tokenId];\r\n        delete _ownedTokens[from][lastTokenIndex];\r\n    }\r\n\r\n    function _removeTokenFromAllTokensEnumeration(uint tokenId) private {\r\n        uint lastTokenIndex = _allNfts.length - 1;\r\n        uint tokenIndex = _idToNftIndex[tokenId];\r\n        uint lastTokenId = _allNfts[lastTokenIndex];\r\n\r\n        _allNfts[tokenIndex] = lastTokenId;\r\n        _idToNftIndex[lastTokenId] = tokenIndex;\r\n\r\n        delete _idToNftIndex[tokenId];\r\n        _allNfts.pop();\r\n\r\n    }\r\n\r\n}\r\n",
  "sourcePath": "E:\\petProjects\\nft-market\\contracts\\NftMarket.sol",
  "compiler": {
    "name": "solc",
    "version": "0.8.18+commit.87f61d96.Emscripten.clang"
  },
  "schemaVersion": "3.4.10",
  "updatedAt": "2023-02-02T22:26:26.906Z",
  "networkType": "ethereum",
  "devdoc": {
    "events": {
      "Approval(address,address,uint256)": {
        "details": "Emitted when `owner` enables `approved` to manage the `tokenId` token."
      },
      "ApprovalForAll(address,address,bool)": {
        "details": "Emitted when `owner` enables or disables (`approved`) `operator` to manage all of its assets."
      },
      "Transfer(address,address,uint256)": {
        "details": "Emitted when `tokenId` token is transferred from `from` to `to`."
      }
    },
    "kind": "dev",
    "methods": {
      "approve(address,uint256)": {
        "details": "See {IERC721-approve}."
      },
      "balanceOf(address)": {
        "details": "See {IERC721-balanceOf}."
      },
      "getApproved(uint256)": {
        "details": "See {IERC721-getApproved}."
      },
      "isApprovedForAll(address,address)": {
        "details": "See {IERC721-isApprovedForAll}."
      },
      "name()": {
        "details": "See {IERC721Metadata-name}."
      },
      "owner()": {
        "details": "Returns the address of the current owner."
      },
      "ownerOf(uint256)": {
        "details": "See {IERC721-ownerOf}."
      },
      "renounceOwnership()": {
        "details": "Leaves the contract without owner. It will not be possible to call `onlyOwner` functions anymore. Can only be called by the current owner. NOTE: Renouncing ownership will leave the contract without an owner, thereby removing any functionality that is only available to the owner."
      },
      "safeTransferFrom(address,address,uint256)": {
        "details": "See {IERC721-safeTransferFrom}."
      },
      "safeTransferFrom(address,address,uint256,bytes)": {
        "details": "See {IERC721-safeTransferFrom}."
      },
      "setApprovalForAll(address,bool)": {
        "details": "See {IERC721-setApprovalForAll}."
      },
      "supportsInterface(bytes4)": {
        "details": "See {IERC165-supportsInterface}."
      },
      "symbol()": {
        "details": "See {IERC721Metadata-symbol}."
      },
      "tokenURI(uint256)": {
        "details": "See {IERC721Metadata-tokenURI}."
      },
      "transferFrom(address,address,uint256)": {
        "details": "See {IERC721-transferFrom}."
      },
      "transferOwnership(address)": {
        "details": "Transfers ownership of the contract to a new account (`newOwner`). Can only be called by the current owner."
      }
    },
    "version": 1
  },
  "userdoc": {
    "kind": "user",
    "methods": {},
    "version": 1
  }
}